{
  "_format": "hh-sol-artifact-1",
  "contractName": "Halo2Verifier",
  "sourceName": "contracts/verifiers/Halo2Verifier.sol",
  "abi": [
    {
      "inputs": [],
      "stateMutability": "nonpayable",
      "type": "constructor"
    },
    {
      "anonymous": false,
      "inputs": [
        {
          "indexed": true,
          "internalType": "address",
          "name": "previousOwner",
          "type": "address"
        },
        {
          "indexed": true,
          "internalType": "address",
          "name": "newOwner",
          "type": "address"
        }
      ],
      "name": "OwnershipTransferred",
      "type": "event"
    },
    {
      "anonymous": false,
      "inputs": [
        {
          "indexed": true,
          "internalType": "bytes32",
          "name": "proofId",
          "type": "bytes32"
        },
        {
          "indexed": true,
          "internalType": "address",
          "name": "verifier",
          "type": "address"
        }
      ],
      "name": "ProofRejected",
      "type": "event"
    },
    {
      "anonymous": false,
      "inputs": [
        {
          "indexed": true,
          "internalType": "bytes32",
          "name": "proofId",
          "type": "bytes32"
        },
        {
          "indexed": true,
          "internalType": "address",
          "name": "verifier",
          "type": "address"
        }
      ],
      "name": "ProofVerified",
      "type": "event"
    },
    {
      "inputs": [],
      "name": "MAX_PROOF_AGE",
      "outputs": [
        {
          "internalType": "uint256",
          "name": "",
          "type": "uint256"
        }
      ],
      "stateMutability": "view",
      "type": "function"
    },
    {
      "inputs": [
        {
          "internalType": "bytes32",
          "name": "proofId",
          "type": "bytes32"
        }
      ],
      "name": "getVerificationParams",
      "outputs": [
        {
          "components": [
            {
              "internalType": "bytes32[]",
              "name": "publicInputs",
              "type": "bytes32[]"
            },
            {
              "internalType": "bytes",
              "name": "proof",
              "type": "bytes"
            },
            {
              "internalType": "uint256",
              "name": "timestamp",
              "type": "uint256"
            }
          ],
          "internalType": "struct Halo2Verifier.VerificationParams",
          "name": "",
          "type": "tuple"
        }
      ],
      "stateMutability": "view",
      "type": "function"
    },
    {
      "inputs": [
        {
          "internalType": "bytes32",
          "name": "proofId",
          "type": "bytes32"
        }
      ],
      "name": "isProofValid",
      "outputs": [
        {
          "internalType": "bool",
          "name": "",
          "type": "bool"
        }
      ],
      "stateMutability": "view",
      "type": "function"
    },
    {
      "inputs": [],
      "name": "owner",
      "outputs": [
        {
          "internalType": "address",
          "name": "",
          "type": "address"
        }
      ],
      "stateMutability": "view",
      "type": "function"
    },
    {
      "inputs": [],
      "name": "renounceOwnership",
      "outputs": [],
      "stateMutability": "nonpayable",
      "type": "function"
    },
    {
      "inputs": [
        {
          "internalType": "address",
          "name": "newOwner",
          "type": "address"
        }
      ],
      "name": "transferOwnership",
      "outputs": [],
      "stateMutability": "nonpayable",
      "type": "function"
    },
    {
      "inputs": [
        {
          "internalType": "bytes32",
          "name": "proofId",
          "type": "bytes32"
        },
        {
          "internalType": "bytes32[]",
          "name": "publicInputs",
          "type": "bytes32[]"
        },
        {
          "internalType": "bytes",
          "name": "proof",
          "type": "bytes"
        }
      ],
      "name": "verifyProof",
      "outputs": [
        {
          "internalType": "bool",
          "name": "",
          "type": "bool"
        }
      ],
      "stateMutability": "nonpayable",
      "type": "function"
    }
  ],
  "bytecode": "0x6080806040523461005b5760008054336001600160a01b0319821681178355916001600160a01b03909116907f8be0079c531659141344cd1fd0a4f28419497f9722a3daafe3b4186f6b6457e09080a361093f90816100618239f35b600080fdfe60406080815260048036101561001457600080fd5b600091823560e01c806319d3137b146106b95780633f18e0b4146103b75780635bb3969414610399578063715018a61461033c5780638da5cb5b146103145780639cd138e8146101395763f2fde38b1461006d57600080fd5b34610135576020366003190112610135576001600160a01b038235818116939192908490036101315761009e6106e2565b83156100df57505082546001600160a01b0319811683178455167f8be0079c531659141344cd1fd0a4f28419497f9722a3daafe3b4186f6b6457e08380a380f35b906020608492519162461bcd60e51b8352820152602660248201527f4f776e61626c653a206e6577206f776e657220697320746865207a65726f206160448201526564647265737360d01b6064820152fd5b8480fd5b8280fd5b509190346103105760209081600319360112610135578284805161015c8161073a565b606081526060858201520152358252600191828252838120938051916101818361073a565b81518081868954928381520189855287852092855b8a8a8383106102fb57505050506101af9250038261076c565b8352848601958251809783908054906101c78261078e565b91828552898b821691826000146102d9575050600114610291575b5050600292916101f691989698038961076c565b8587019788520154958286019687528251958587526080870190519460608789015285518092528660a08901960191845b8882821061027e5750505050505195601f1992838786030190870152865191828552805b83811061026b5750848301860152516060860152601f0116018290030190f35b888101870151868201880152860161024b565b8451895297880197909301928201610227565b915092915083528786808520938986955b8287106102bd575093949293505090820101816101f66101e2565b9091949593838583549201015201910192918790898b936102a2565b60ff19168682015292151560051b850190920192508391506101f690506101e2565b86548552958101958795509093019201610196565b5080fd5b838234610310578160031936011261031057905490516001600160a01b039091168152602090f35b83346103965780600319360112610396576103556106e2565b80546001600160a01b03198116825581906001600160a01b03167f8be0079c531659141344cd1fd0a4f28419497f9722a3daafe3b4186f6b6457e08280a380f35b80fd5b83823461031057816003193601126103105760209051620151808152f35b5082903461031057606036600319011261031057823591602491823567ffffffffffffffff958682116106b557366023830112156106b55781810135878111610131578060051b97868985010198368a116106b157604435928284116106ad57366023850112156106ad5783850135908382116106a957368a83870101116106a9579a959088929188519761044b8961073a565b89519160209e8f80960161045f908561076c565b83528c018483015b828210610697575050508752808a89519661048b85601f19601f860116018961076c565b82885201838701378401015288840191825284840192428452888752600197888b52868820955180519084821161068557680100000000000000008211610685578c908854838a5583818110610655575b505001878a528c8b818c20918c905b8582106106435750509250505086019351918251938411610632575050610512835461078e565b601f81116105ec575b508990601f83116001146105855760029493929188918361057a575b5050600019600383901b1c191690881b1790555b5191015551927f60d9367e24cc6f7fa9630b6542cd57edc20576d1a1169ff87a9eb34680a56acf339280a38152f35b015190508b80610537565b9392918891601f19821690848a528c8a20918d8b905b8282106105d55750509683600298106105bc575b505050811b01905561054b565b015160001960f88460031b161c191690558b80806105af565b838a015185558d969094019392830192018e61059b565b8388528a8820601f840160051c8101918c8510610628575b601f0160051c019089905b82811061061d57505061051b565b89815501899061060f565b9091508190610604565b634e487b7160e01b89526041905287fd5b845194019381840155018c908f6104eb565b8d90848e8d81522092830192015b828110610672575050836104dc565b90919293508c815501908c8f9392610663565b634e487b7160e01b8a5260418452828afd5b813581528c9650908501908501610467565b8880fd5b8780fd5b8680fd5b8380fd5b50823461039657602036600319011261039657506106d9602092356107c8565b90519015158152f35b6000546001600160a01b031633036106f657565b606460405162461bcd60e51b815260206004820152602060248201527f4f776e61626c653a2063616c6c6572206973206e6f7420746865206f776e65726044820152fd5b6060810190811067ffffffffffffffff82111761075657604052565b634e487b7160e01b600052604160045260246000fd5b90601f8019910116810190811067ffffffffffffffff82111761075657604052565b90600182811c921680156107be575b60208310146107a857565b634e487b7160e01b600052602260045260246000fd5b91607f169161079d565b6000908152600190602082815260408220604051916107e68361073a565b6040518081838554928381520185885284882092885b8a878383106108f457505050506108159250038261076c565b83528482019060405191859080549061082d8261078e565b808652918981169081156108d657506001146108a0575b505091604094939161085a82600295038361076c565b84015201549182910152801561089a57620151808101809111610886574211610881575090565b905090565b634e487b7160e01b82526011600452602482fd5b50905090565b875282872087925088905b8284106108c257505050820181018161085a610844565b8054868501860152928401928991016108ab565b60ff1916858701525050151560051b8301820190508161085a610844565b865485529581019587955090930192016107fc56fea26469706673582212202ea455808e5626e43d3ce893818d2ad8a6cd649c85d141976a52521f7a9fc16a64736f6c63430008140033",
  "linkReferences": {},
  "deployedLinkReferences": {}
}