{
  "_format": "hh-sol-artifact-1",
  "contractName": "Legacy",
  "sourceName": "contracts/Legacy.sol",
  "abi": [
    {
      "inputs": [
        {
          "internalType": "uint256",
          "name": "initialSupply",
          "type": "uint256"
        },
        {
          "internalType": "address",
          "name": "_halo2Verifier",
          "type": "address"
        }
      ],
      "stateMutability": "nonpayable",
      "type": "constructor"
    },
    {
      "anonymous": false,
      "inputs": [
        {
          "indexed": true,
          "internalType": "bytes32",
          "name": "vaultId",
          "type": "bytes32"
        }
      ],
      "name": "AdminChangeApproved",
      "type": "event"
    },
    {
      "anonymous": false,
      "inputs": [
        {
          "indexed": true,
          "internalType": "bytes32",
          "name": "vaultId",
          "type": "bytes32"
        }
      ],
      "name": "AdminChangeRejected",
      "type": "event"
    },
    {
      "anonymous": false,
      "inputs": [
        {
          "indexed": true,
          "internalType": "bytes32",
          "name": "vaultId",
          "type": "bytes32"
        },
        {
          "indexed": false,
          "internalType": "address",
          "name": "oldAdmin",
          "type": "address"
        },
        {
          "indexed": false,
          "internalType": "address",
          "name": "newAdmin",
          "type": "address"
        }
      ],
      "name": "AdminChanged",
      "type": "event"
    },
    {
      "anonymous": false,
      "inputs": [
        {
          "indexed": true,
          "internalType": "bytes32",
          "name": "vaultId",
          "type": "bytes32"
        },
        {
          "indexed": false,
          "internalType": "address",
          "name": "newAdmin",
          "type": "address"
        }
      ],
      "name": "AdminRequestApproved",
      "type": "event"
    },
    {
      "anonymous": false,
      "inputs": [
        {
          "indexed": true,
          "internalType": "bytes32",
          "name": "vaultId",
          "type": "bytes32"
        },
        {
          "indexed": false,
          "internalType": "address",
          "name": "requester",
          "type": "address"
        },
        {
          "indexed": false,
          "internalType": "address",
          "name": "newAdmin",
          "type": "address"
        }
      ],
      "name": "AdminRequestCreated",
      "type": "event"
    },
    {
      "anonymous": false,
      "inputs": [
        {
          "indexed": true,
          "internalType": "bytes32",
          "name": "vaultId",
          "type": "bytes32"
        }
      ],
      "name": "AdminRequestRejected",
      "type": "event"
    },
    {
      "anonymous": false,
      "inputs": [
        {
          "indexed": true,
          "internalType": "address",
          "name": "owner",
          "type": "address"
        },
        {
          "indexed": true,
          "internalType": "address",
          "name": "spender",
          "type": "address"
        },
        {
          "indexed": false,
          "internalType": "uint256",
          "name": "value",
          "type": "uint256"
        }
      ],
      "name": "Approval",
      "type": "event"
    },
    {
      "anonymous": false,
      "inputs": [
        {
          "indexed": false,
          "internalType": "uint8",
          "name": "assetType",
          "type": "uint8"
        },
        {
          "indexed": false,
          "internalType": "uint256",
          "name": "amount",
          "type": "uint256"
        },
        {
          "indexed": false,
          "internalType": "uint256",
          "name": "price",
          "type": "uint256"
        }
      ],
      "name": "AssetAdded",
      "type": "event"
    },
    {
      "anonymous": false,
      "inputs": [
        {
          "indexed": true,
          "internalType": "address",
          "name": "blacklistedAddress",
          "type": "address"
        },
        {
          "indexed": false,
          "internalType": "bool",
          "name": "isBlacklisted",
          "type": "bool"
        }
      ],
      "name": "BlacklistUpdated",
      "type": "event"
    },
    {
      "anonymous": false,
      "inputs": [
        {
          "indexed": true,
          "internalType": "bytes32",
          "name": "vaultId",
          "type": "bytes32"
        }
      ],
      "name": "DeadManSwitchDisabled",
      "type": "event"
    },
    {
      "anonymous": false,
      "inputs": [
        {
          "indexed": true,
          "internalType": "bytes32",
          "name": "vaultId",
          "type": "bytes32"
        },
        {
          "indexed": false,
          "internalType": "address",
          "name": "successor",
          "type": "address"
        }
      ],
      "name": "DeadManSwitchEnabled",
      "type": "event"
    },
    {
      "anonymous": false,
      "inputs": [
        {
          "indexed": true,
          "internalType": "address",
          "name": "owner",
          "type": "address"
        },
        {
          "indexed": true,
          "internalType": "address",
          "name": "contact",
          "type": "address"
        },
        {
          "indexed": false,
          "internalType": "uint256",
          "name": "accessLevel",
          "type": "uint256"
        }
      ],
      "name": "EmergencyAccessGranted",
      "type": "event"
    },
    {
      "anonymous": false,
      "inputs": [
        {
          "indexed": true,
          "internalType": "address",
          "name": "owner",
          "type": "address"
        },
        {
          "indexed": true,
          "internalType": "address",
          "name": "contact",
          "type": "address"
        }
      ],
      "name": "EmergencyAccessRevoked",
      "type": "event"
    },
    {
      "anonymous": false,
      "inputs": [
        {
          "indexed": true,
          "internalType": "address",
          "name": "owner",
          "type": "address"
        },
        {
          "indexed": true,
          "internalType": "address",
          "name": "contact",
          "type": "address"
        },
        {
          "indexed": false,
          "internalType": "uint256",
          "name": "delayPeriod",
          "type": "uint256"
        }
      ],
      "name": "EmergencyContactAdded",
      "type": "event"
    },
    {
      "anonymous": false,
      "inputs": [
        {
          "indexed": true,
          "internalType": "bytes32",
          "name": "vaultId",
          "type": "bytes32"
        },
        {
          "indexed": false,
          "internalType": "address",
          "name": "admin",
          "type": "address"
        }
      ],
      "name": "HeartbeatReceived",
      "type": "event"
    },
    {
      "anonymous": false,
      "inputs": [
        {
          "indexed": true,
          "internalType": "address",
          "name": "previousOwner",
          "type": "address"
        },
        {
          "indexed": true,
          "internalType": "address",
          "name": "newOwner",
          "type": "address"
        }
      ],
      "name": "OwnershipTransferred",
      "type": "event"
    },
    {
      "anonymous": false,
      "inputs": [
        {
          "indexed": true,
          "internalType": "bytes32",
          "name": "assetId",
          "type": "bytes32"
        },
        {
          "indexed": false,
          "internalType": "bytes32[]",
          "name": "publicInputs",
          "type": "bytes32[]"
        }
      ],
      "name": "PrivateAssetAdded",
      "type": "event"
    },
    {
      "anonymous": false,
      "inputs": [
        {
          "indexed": true,
          "internalType": "bytes32",
          "name": "assetId",
          "type": "bytes32"
        }
      ],
      "name": "PrivateAssetRemoved",
      "type": "event"
    },
    {
      "anonymous": false,
      "inputs": [
        {
          "indexed": true,
          "internalType": "bytes32",
          "name": "vaultId",
          "type": "bytes32"
        },
        {
          "indexed": false,
          "internalType": "uint256",
          "name": "unlockTimestamp",
          "type": "uint256"
        },
        {
          "indexed": false,
          "internalType": "address",
          "name": "admin",
          "type": "address"
        }
      ],
      "name": "PrivateVaultCreated",
      "type": "event"
    },
    {
      "anonymous": false,
      "inputs": [
        {
          "indexed": true,
          "internalType": "bytes32",
          "name": "vaultId",
          "type": "bytes32"
        },
        {
          "indexed": false,
          "internalType": "address",
          "name": "oldAdmin",
          "type": "address"
        },
        {
          "indexed": false,
          "internalType": "address",
          "name": "newAdmin",
          "type": "address"
        }
      ],
      "name": "SuccessorActivated",
      "type": "event"
    },
    {
      "anonymous": false,
      "inputs": [
        {
          "indexed": true,
          "internalType": "bytes32",
          "name": "vaultId",
          "type": "bytes32"
        }
      ],
      "name": "SuccessorChangeApproved",
      "type": "event"
    },
    {
      "anonymous": false,
      "inputs": [
        {
          "indexed": true,
          "internalType": "bytes32",
          "name": "vaultId",
          "type": "bytes32"
        }
      ],
      "name": "SuccessorChangeRejected",
      "type": "event"
    },
    {
      "anonymous": false,
      "inputs": [
        {
          "indexed": true,
          "internalType": "bytes32",
          "name": "vaultId",
          "type": "bytes32"
        },
        {
          "indexed": false,
          "internalType": "address",
          "name": "newSuccessor",
          "type": "address"
        }
      ],
      "name": "SuccessorChanged",
      "type": "event"
    },
    {
      "anonymous": false,
      "inputs": [
        {
          "indexed": true,
          "internalType": "address",
          "name": "from",
          "type": "address"
        },
        {
          "indexed": true,
          "internalType": "address",
          "name": "to",
          "type": "address"
        },
        {
          "indexed": false,
          "internalType": "uint256",
          "name": "value",
          "type": "uint256"
        }
      ],
      "name": "Transfer",
      "type": "event"
    },
    {
      "anonymous": false,
      "inputs": [
        {
          "indexed": true,
          "internalType": "bytes32",
          "name": "vaultId",
          "type": "bytes32"
        },
        {
          "indexed": true,
          "internalType": "address",
          "name": "owner",
          "type": "address"
        }
      ],
      "name": "VaultCancelled",
      "type": "event"
    },
    {
      "anonymous": false,
      "inputs": [
        {
          "indexed": true,
          "internalType": "bytes32",
          "name": "vaultId",
          "type": "bytes32"
        },
        {
          "indexed": true,
          "internalType": "address",
          "name": "owner",
          "type": "address"
        },
        {
          "indexed": false,
          "internalType": "uint256",
          "name": "amount",
          "type": "uint256"
        }
      ],
      "name": "VaultClaimed",
      "type": "event"
    },
    {
      "anonymous": false,
      "inputs": [
        {
          "indexed": true,
          "internalType": "address",
          "name": "owner",
          "type": "address"
        },
        {
          "indexed": false,
          "internalType": "uint256",
          "name": "amount",
          "type": "uint256"
        },
        {
          "indexed": false,
          "internalType": "uint256",
          "name": "unlockTimestamp",
          "type": "uint256"
        },
        {
          "indexed": false,
          "internalType": "address",
          "name": "beneficiary",
          "type": "address"
        },
        {
          "indexed": false,
          "internalType": "address",
          "name": "admin",
          "type": "address"
        }
      ],
      "name": "VaultCreated",
      "type": "event"
    },
    {
      "anonymous": false,
      "inputs": [
        {
          "indexed": true,
          "internalType": "bytes32",
          "name": "vaultId",
          "type": "bytes32"
        },
        {
          "indexed": false,
          "internalType": "uint256",
          "name": "newUnlockTimestamp",
          "type": "uint256"
        }
      ],
      "name": "VaultExtended",
      "type": "event"
    },
    {
      "anonymous": false,
      "inputs": [
        {
          "indexed": true,
          "internalType": "bytes32",
          "name": "originalVaultId",
          "type": "bytes32"
        },
        {
          "indexed": false,
          "internalType": "bytes32[]",
          "name": "newVaultIds",
          "type": "bytes32[]"
        }
      ],
      "name": "VaultSplit",
      "type": "event"
    },
    {
      "anonymous": false,
      "inputs": [
        {
          "indexed": false,
          "internalType": "bytes32[]",
          "name": "vaultIds",
          "type": "bytes32[]"
        },
        {
          "indexed": false,
          "internalType": "bytes32",
          "name": "newVaultId",
          "type": "bytes32"
        }
      ],
      "name": "VaultsMerged",
      "type": "event"
    },
    {
      "anonymous": false,
      "inputs": [
        {
          "indexed": true,
          "internalType": "bytes32",
          "name": "vaultId",
          "type": "bytes32"
        },
        {
          "indexed": false,
          "internalType": "enum LegacyTypes.VerificationMethod",
          "name": "method",
          "type": "uint8"
        }
      ],
      "name": "VerificationMethodSet",
      "type": "event"
    },
    {
      "anonymous": false,
      "inputs": [
        {
          "indexed": true,
          "internalType": "bytes32",
          "name": "vaultId",
          "type": "bytes32"
        },
        {
          "indexed": false,
          "internalType": "address",
          "name": "verifier",
          "type": "address"
        },
        {
          "indexed": false,
          "internalType": "enum LegacyTypes.VerificationMethod",
          "name": "method",
          "type": "uint8"
        }
      ],
      "name": "VerificationReceived",
      "type": "event"
    },
    {
      "anonymous": false,
      "inputs": [
        {
          "indexed": true,
          "internalType": "bytes32",
          "name": "vaultId",
          "type": "bytes32"
        },
        {
          "indexed": false,
          "internalType": "address[]",
          "name": "verifiers",
          "type": "address[]"
        },
        {
          "indexed": false,
          "internalType": "uint256",
          "name": "requiredVerifications",
          "type": "uint256"
        }
      ],
      "name": "VerifiersUpdated",
      "type": "event"
    },
    {
      "inputs": [],
      "name": "MAX_VAULT_DURATION",
      "outputs": [
        {
          "internalType": "uint256",
          "name": "",
          "type": "uint256"
        }
      ],
      "stateMutability": "view",
      "type": "function"
    },
    {
      "inputs": [],
      "name": "MIN_VAULT_DURATION",
      "outputs": [
        {
          "internalType": "uint256",
          "name": "",
          "type": "uint256"
        }
      ],
      "stateMutability": "view",
      "type": "function"
    },
    {
      "inputs": [
        {
          "internalType": "bytes32",
          "name": "vaultId",
          "type": "bytes32"
        },
        {
          "internalType": "bytes32[]",
          "name": "publicInputs",
          "type": "bytes32[]"
        },
        {
          "internalType": "bytes",
          "name": "proof",
          "type": "bytes"
        }
      ],
      "name": "activateSuccessor",
      "outputs": [],
      "stateMutability": "nonpayable",
      "type": "function"
    },
    {
      "inputs": [
        {
          "internalType": "string",
          "name": "assetType",
          "type": "string"
        },
        {
          "internalType": "uint256",
          "name": "amount",
          "type": "uint256"
        },
        {
          "internalType": "uint256",
          "name": "price",
          "type": "uint256"
        }
      ],
      "name": "addAsset",
      "outputs": [],
      "stateMutability": "nonpayable",
      "type": "function"
    },
    {
      "inputs": [
        {
          "internalType": "address",
          "name": "contact",
          "type": "address"
        },
        {
          "internalType": "uint256",
          "name": "delayPeriod",
          "type": "uint256"
        },
        {
          "internalType": "uint256",
          "name": "accessLevel",
          "type": "uint256"
        },
        {
          "internalType": "bytes32[]",
          "name": "publicInputs",
          "type": "bytes32[]"
        },
        {
          "internalType": "bytes",
          "name": "proof",
          "type": "bytes"
        }
      ],
      "name": "addEmergencyContact",
      "outputs": [],
      "stateMutability": "nonpayable",
      "type": "function"
    },
    {
      "inputs": [
        {
          "internalType": "bytes32",
          "name": "assetId",
          "type": "bytes32"
        },
        {
          "internalType": "bytes32[]",
          "name": "publicInputs",
          "type": "bytes32[]"
        },
        {
          "internalType": "bytes",
          "name": "proof",
          "type": "bytes"
        }
      ],
      "name": "addPrivateAsset",
      "outputs": [],
      "stateMutability": "nonpayable",
      "type": "function"
    },
    {
      "inputs": [
        {
          "internalType": "address",
          "name": "owner",
          "type": "address"
        },
        {
          "internalType": "address",
          "name": "spender",
          "type": "address"
        }
      ],
      "name": "allowance",
      "outputs": [
        {
          "internalType": "uint256",
          "name": "",
          "type": "uint256"
        }
      ],
      "stateMutability": "view",
      "type": "function"
    },
    {
      "inputs": [
        {
          "internalType": "address",
          "name": "spender",
          "type": "address"
        },
        {
          "internalType": "uint256",
          "name": "amount",
          "type": "uint256"
        }
      ],
      "name": "approve",
      "outputs": [
        {
          "internalType": "bool",
          "name": "",
          "type": "bool"
        }
      ],
      "stateMutability": "nonpayable",
      "type": "function"
    },
    {
      "inputs": [
        {
          "internalType": "bytes32",
          "name": "vaultId",
          "type": "bytes32"
        },
        {
          "internalType": "bytes32[]",
          "name": "publicInputs",
          "type": "bytes32[]"
        },
        {
          "internalType": "bytes",
          "name": "proof",
          "type": "bytes"
        }
      ],
      "name": "approveAdminChange",
      "outputs": [],
      "stateMutability": "nonpayable",
      "type": "function"
    },
    {
      "inputs": [
        {
          "internalType": "bytes32",
          "name": "vaultId",
          "type": "bytes32"
        },
        {
          "internalType": "bytes32[]",
          "name": "publicInputs",
          "type": "bytes32[]"
        },
        {
          "internalType": "bytes",
          "name": "proof",
          "type": "bytes"
        }
      ],
      "name": "approveSuccessorChange",
      "outputs": [],
      "stateMutability": "nonpayable",
      "type": "function"
    },
    {
      "inputs": [
        {
          "internalType": "address",
          "name": "account",
          "type": "address"
        }
      ],
      "name": "balanceOf",
      "outputs": [
        {
          "internalType": "uint256",
          "name": "",
          "type": "uint256"
        }
      ],
      "stateMutability": "view",
      "type": "function"
    },
    {
      "inputs": [
        {
          "internalType": "bytes32",
          "name": "vaultId",
          "type": "bytes32"
        },
        {
          "internalType": "bytes32[]",
          "name": "publicInputs",
          "type": "bytes32[]"
        },
        {
          "internalType": "bytes",
          "name": "proof",
          "type": "bytes"
        }
      ],
      "name": "cancelPrivateVault",
      "outputs": [],
      "stateMutability": "nonpayable",
      "type": "function"
    },
    {
      "inputs": [
        {
          "internalType": "bytes32",
          "name": "vaultId",
          "type": "bytes32"
        },
        {
          "internalType": "bytes32[]",
          "name": "publicInputs",
          "type": "bytes32[]"
        },
        {
          "internalType": "bytes",
          "name": "proof",
          "type": "bytes"
        }
      ],
      "name": "claimFromPrivateVault",
      "outputs": [],
      "stateMutability": "nonpayable",
      "type": "function"
    },
    {
      "inputs": [
        {
          "internalType": "bytes32",
          "name": "vaultId",
          "type": "bytes32"
        },
        {
          "internalType": "uint256",
          "name": "verificationInterval",
          "type": "uint256"
        },
        {
          "internalType": "address",
          "name": "successor",
          "type": "address"
        },
        {
          "internalType": "bytes32[]",
          "name": "publicInputs",
          "type": "bytes32[]"
        },
        {
          "internalType": "bytes",
          "name": "proof",
          "type": "bytes"
        }
      ],
      "name": "configureDeadManSwitch",
      "outputs": [],
      "stateMutability": "nonpayable",
      "type": "function"
    },
    {
      "inputs": [
        {
          "internalType": "bytes32",
          "name": "vaultId",
          "type": "bytes32"
        },
        {
          "internalType": "uint256",
          "name": "amount",
          "type": "uint256"
        },
        {
          "internalType": "uint256",
          "name": "unlockTimestamp",
          "type": "uint256"
        },
        {
          "internalType": "address",
          "name": "admin",
          "type": "address"
        },
        {
          "internalType": "bool",
          "name": "hasDeadManSwitch",
          "type": "bool"
        },
        {
          "internalType": "enum LegacyTypes.VerificationMethod",
          "name": "verificationMethod",
          "type": "uint8"
        },
        {
          "internalType": "address[]",
          "name": "verifiers",
          "type": "address[]"
        },
        {
          "internalType": "uint256",
          "name": "requiredVerifications",
          "type": "uint256"
        },
        {
          "internalType": "address",
          "name": "successor",
          "type": "address"
        },
        {
          "internalType": "bytes32[]",
          "name": "publicInputs",
          "type": "bytes32[]"
        },
        {
          "internalType": "bytes",
          "name": "proof",
          "type": "bytes"
        }
      ],
      "name": "createPrivateVault",
      "outputs": [],
      "stateMutability": "nonpayable",
      "type": "function"
    },
    {
      "inputs": [
        {
          "internalType": "uint256",
          "name": "amount",
          "type": "uint256"
        },
        {
          "internalType": "uint256",
          "name": "unlockTimestamp",
          "type": "uint256"
        },
        {
          "internalType": "address",
          "name": "beneficiary",
          "type": "address"
        },
        {
          "internalType": "address",
          "name": "admin",
          "type": "address"
        },
        {
          "internalType": "bool",
          "name": "hasDeadManSwitch",
          "type": "bool"
        },
        {
          "internalType": "enum LegacyTypes.VerificationMethod",
          "name": "verificationMethod",
          "type": "uint8"
        },
        {
          "internalType": "address[]",
          "name": "verifiers",
          "type": "address[]"
        },
        {
          "internalType": "uint256",
          "name": "requiredVerifications",
          "type": "uint256"
        },
        {
          "internalType": "address",
          "name": "successor",
          "type": "address"
        }
      ],
      "name": "createVault",
      "outputs": [],
      "stateMutability": "nonpayable",
      "type": "function"
    },
    {
      "inputs": [],
      "name": "decimals",
      "outputs": [
        {
          "internalType": "uint8",
          "name": "",
          "type": "uint8"
        }
      ],
      "stateMutability": "view",
      "type": "function"
    },
    {
      "inputs": [
        {
          "internalType": "address",
          "name": "spender",
          "type": "address"
        },
        {
          "internalType": "uint256",
          "name": "subtractedValue",
          "type": "uint256"
        }
      ],
      "name": "decreaseAllowance",
      "outputs": [
        {
          "internalType": "bool",
          "name": "",
          "type": "bool"
        }
      ],
      "stateMutability": "nonpayable",
      "type": "function"
    },
    {
      "inputs": [
        {
          "internalType": "bytes32",
          "name": "vaultId",
          "type": "bytes32"
        },
        {
          "internalType": "bytes32[]",
          "name": "publicInputs",
          "type": "bytes32[]"
        },
        {
          "internalType": "bytes",
          "name": "proof",
          "type": "bytes"
        }
      ],
      "name": "disableDeadManSwitch",
      "outputs": [],
      "stateMutability": "nonpayable",
      "type": "function"
    },
    {
      "inputs": [
        {
          "internalType": "bytes32",
          "name": "vaultId",
          "type": "bytes32"
        },
        {
          "internalType": "address",
          "name": "successor",
          "type": "address"
        },
        {
          "internalType": "bytes32[]",
          "name": "publicInputs",
          "type": "bytes32[]"
        },
        {
          "internalType": "bytes",
          "name": "proof",
          "type": "bytes"
        }
      ],
      "name": "enableDeadManSwitch",
      "outputs": [],
      "stateMutability": "nonpayable",
      "type": "function"
    },
    {
      "inputs": [
        {
          "internalType": "bytes32",
          "name": "vaultId",
          "type": "bytes32"
        },
        {
          "internalType": "uint256",
          "name": "newUnlockTimestamp",
          "type": "uint256"
        },
        {
          "internalType": "bytes32[]",
          "name": "publicInputs",
          "type": "bytes32[]"
        },
        {
          "internalType": "bytes",
          "name": "proof",
          "type": "bytes"
        }
      ],
      "name": "extendPrivateVault",
      "outputs": [],
      "stateMutability": "nonpayable",
      "type": "function"
    },
    {
      "inputs": [],
      "name": "getBackingAssets",
      "outputs": [
        {
          "components": [
            {
              "internalType": "string",
              "name": "assetType",
              "type": "string"
            },
            {
              "internalType": "uint256",
              "name": "amount",
              "type": "uint256"
            },
            {
              "internalType": "uint256",
              "name": "price",
              "type": "uint256"
            }
          ],
          "internalType": "struct LegacyTypes.AssetBacking[]",
          "name": "",
          "type": "tuple[]"
        }
      ],
      "stateMutability": "view",
      "type": "function"
    },
    {
      "inputs": [
        {
          "internalType": "address",
          "name": "owner",
          "type": "address"
        }
      ],
      "name": "getVaults",
      "outputs": [
        {
          "components": [
            {
              "internalType": "uint256",
              "name": "amount",
              "type": "uint256"
            },
            {
              "internalType": "uint256",
              "name": "unlockTimestamp",
              "type": "uint256"
            },
            {
              "internalType": "address",
              "name": "beneficiary",
              "type": "address"
            },
            {
              "internalType": "address",
              "name": "admin",
              "type": "address"
            },
            {
              "internalType": "bool",
              "name": "isAdminActive",
              "type": "bool"
            },
            {
              "internalType": "bool",
              "name": "hasDeadManSwitch",
              "type": "bool"
            },
            {
              "components": [
                {
                  "internalType": "bool",
                  "name": "isEnabled",
                  "type": "bool"
                },
                {
                  "internalType": "enum LegacyTypes.VerificationMethod",
                  "name": "method",
                  "type": "uint8"
                },
                {
                  "internalType": "uint256",
                  "name": "lastVerification",
                  "type": "uint256"
                },
                {
                  "internalType": "uint256",
                  "name": "verificationInterval",
                  "type": "uint256"
                },
                {
                  "internalType": "address[]",
                  "name": "verifiers",
                  "type": "address[]"
                },
                {
                  "internalType": "uint256",
                  "name": "requiredVerifications",
                  "type": "uint256"
                }
              ],
              "internalType": "struct LegacyTypes.VerificationConfig",
              "name": "verificationConfig",
              "type": "tuple"
            },
            {
              "internalType": "address",
              "name": "successor",
              "type": "address"
            }
          ],
          "internalType": "struct LegacyTypes.Vault[]",
          "name": "",
          "type": "tuple[]"
        }
      ],
      "stateMutability": "view",
      "type": "function"
    },
    {
      "inputs": [],
      "name": "halo2Verifier",
      "outputs": [
        {
          "internalType": "contract Halo2Verifier",
          "name": "",
          "type": "address"
        }
      ],
      "stateMutability": "view",
      "type": "function"
    },
    {
      "inputs": [
        {
          "internalType": "address",
          "name": "spender",
          "type": "address"
        },
        {
          "internalType": "uint256",
          "name": "addedValue",
          "type": "uint256"
        }
      ],
      "name": "increaseAllowance",
      "outputs": [
        {
          "internalType": "bool",
          "name": "",
          "type": "bool"
        }
      ],
      "stateMutability": "nonpayable",
      "type": "function"
    },
    {
      "inputs": [
        {
          "internalType": "bytes32[]",
          "name": "vaultIds",
          "type": "bytes32[]"
        },
        {
          "internalType": "bytes32",
          "name": "newVaultId",
          "type": "bytes32"
        },
        {
          "internalType": "bytes32[]",
          "name": "publicInputs",
          "type": "bytes32[]"
        },
        {
          "internalType": "bytes",
          "name": "proof",
          "type": "bytes"
        }
      ],
      "name": "mergePrivateVaults",
      "outputs": [],
      "stateMutability": "nonpayable",
      "type": "function"
    },
    {
      "inputs": [],
      "name": "name",
      "outputs": [
        {
          "internalType": "string",
          "name": "",
          "type": "string"
        }
      ],
      "stateMutability": "view",
      "type": "function"
    },
    {
      "inputs": [],
      "name": "owner",
      "outputs": [
        {
          "internalType": "address",
          "name": "",
          "type": "address"
        }
      ],
      "stateMutability": "view",
      "type": "function"
    },
    {
      "inputs": [
        {
          "internalType": "bytes32",
          "name": "vaultId",
          "type": "bytes32"
        },
        {
          "internalType": "bytes32[]",
          "name": "publicInputs",
          "type": "bytes32[]"
        },
        {
          "internalType": "bytes",
          "name": "proof",
          "type": "bytes"
        }
      ],
      "name": "rejectAdminChange",
      "outputs": [],
      "stateMutability": "nonpayable",
      "type": "function"
    },
    {
      "inputs": [
        {
          "internalType": "bytes32",
          "name": "vaultId",
          "type": "bytes32"
        },
        {
          "internalType": "bytes32[]",
          "name": "publicInputs",
          "type": "bytes32[]"
        },
        {
          "internalType": "bytes",
          "name": "proof",
          "type": "bytes"
        }
      ],
      "name": "rejectSuccessorChange",
      "outputs": [],
      "stateMutability": "nonpayable",
      "type": "function"
    },
    {
      "inputs": [
        {
          "internalType": "bytes32",
          "name": "assetId",
          "type": "bytes32"
        },
        {
          "internalType": "bytes32[]",
          "name": "publicInputs",
          "type": "bytes32[]"
        },
        {
          "internalType": "bytes",
          "name": "proof",
          "type": "bytes"
        }
      ],
      "name": "removePrivateAsset",
      "outputs": [],
      "stateMutability": "nonpayable",
      "type": "function"
    },
    {
      "inputs": [],
      "name": "renounceOwnership",
      "outputs": [],
      "stateMutability": "nonpayable",
      "type": "function"
    },
    {
      "inputs": [
        {
          "internalType": "bytes32",
          "name": "vaultId",
          "type": "bytes32"
        },
        {
          "internalType": "address",
          "name": "newAdmin",
          "type": "address"
        },
        {
          "internalType": "bytes32[]",
          "name": "publicInputs",
          "type": "bytes32[]"
        },
        {
          "internalType": "bytes",
          "name": "proof",
          "type": "bytes"
        }
      ],
      "name": "requestAdminChange",
      "outputs": [],
      "stateMutability": "nonpayable",
      "type": "function"
    },
    {
      "inputs": [
        {
          "internalType": "bytes32",
          "name": "vaultId",
          "type": "bytes32"
        },
        {
          "internalType": "address",
          "name": "newSuccessor",
          "type": "address"
        },
        {
          "internalType": "bytes32[]",
          "name": "publicInputs",
          "type": "bytes32[]"
        },
        {
          "internalType": "bytes",
          "name": "proof",
          "type": "bytes"
        }
      ],
      "name": "requestSuccessorChange",
      "outputs": [],
      "stateMutability": "nonpayable",
      "type": "function"
    },
    {
      "inputs": [
        {
          "internalType": "address",
          "name": "contact",
          "type": "address"
        },
        {
          "internalType": "bytes32[]",
          "name": "publicInputs",
          "type": "bytes32[]"
        },
        {
          "internalType": "bytes",
          "name": "proof",
          "type": "bytes"
        }
      ],
      "name": "revokeEmergencyAccess",
      "outputs": [],
      "stateMutability": "nonpayable",
      "type": "function"
    },
    {
      "inputs": [
        {
          "internalType": "bytes32",
          "name": "vaultId",
          "type": "bytes32"
        },
        {
          "internalType": "bytes32[]",
          "name": "publicInputs",
          "type": "bytes32[]"
        },
        {
          "internalType": "bytes",
          "name": "proof",
          "type": "bytes"
        }
      ],
      "name": "sendHeartbeat",
      "outputs": [],
      "stateMutability": "nonpayable",
      "type": "function"
    },
    {
      "inputs": [
        {
          "internalType": "bytes32",
          "name": "vaultId",
          "type": "bytes32"
        },
        {
          "internalType": "uint256[]",
          "name": "amounts",
          "type": "uint256[]"
        },
        {
          "internalType": "bytes32[]",
          "name": "newVaultIds",
          "type": "bytes32[]"
        },
        {
          "internalType": "bytes32[]",
          "name": "publicInputs",
          "type": "bytes32[]"
        },
        {
          "internalType": "bytes",
          "name": "proof",
          "type": "bytes"
        }
      ],
      "name": "splitPrivateVault",
      "outputs": [],
      "stateMutability": "nonpayable",
      "type": "function"
    },
    {
      "inputs": [],
      "name": "symbol",
      "outputs": [
        {
          "internalType": "string",
          "name": "",
          "type": "string"
        }
      ],
      "stateMutability": "view",
      "type": "function"
    },
    {
      "inputs": [],
      "name": "totalSupply",
      "outputs": [
        {
          "internalType": "uint256",
          "name": "",
          "type": "uint256"
        }
      ],
      "stateMutability": "view",
      "type": "function"
    },
    {
      "inputs": [
        {
          "internalType": "address",
          "name": "to",
          "type": "address"
        },
        {
          "internalType": "uint256",
          "name": "value",
          "type": "uint256"
        }
      ],
      "name": "transfer",
      "outputs": [
        {
          "internalType": "bool",
          "name": "",
          "type": "bool"
        }
      ],
      "stateMutability": "nonpayable",
      "type": "function"
    },
    {
      "inputs": [
        {
          "internalType": "address",
          "name": "from",
          "type": "address"
        },
        {
          "internalType": "address",
          "name": "to",
          "type": "address"
        },
        {
          "internalType": "uint256",
          "name": "amount",
          "type": "uint256"
        }
      ],
      "name": "transferFrom",
      "outputs": [
        {
          "internalType": "bool",
          "name": "",
          "type": "bool"
        }
      ],
      "stateMutability": "nonpayable",
      "type": "function"
    },
    {
      "inputs": [
        {
          "internalType": "address",
          "name": "newOwner",
          "type": "address"
        }
      ],
      "name": "transferOwnership",
      "outputs": [],
      "stateMutability": "nonpayable",
      "type": "function"
    },
    {
      "inputs": [
        {
          "internalType": "address[]",
          "name": "addresses",
          "type": "address[]"
        },
        {
          "internalType": "bool[]",
          "name": "isBlacklisted",
          "type": "bool[]"
        },
        {
          "internalType": "bytes32[]",
          "name": "publicInputs",
          "type": "bytes32[]"
        },
        {
          "internalType": "bytes",
          "name": "proof",
          "type": "bytes"
        }
      ],
      "name": "updateBlacklist",
      "outputs": [],
      "stateMutability": "nonpayable",
      "type": "function"
    },
    {
      "inputs": [
        {
          "internalType": "bytes32",
          "name": "vaultId",
          "type": "bytes32"
        },
        {
          "internalType": "enum LegacyTypes.VerificationMethod",
          "name": "method",
          "type": "uint8"
        },
        {
          "internalType": "address[]",
          "name": "verifiers",
          "type": "address[]"
        },
        {
          "internalType": "uint256",
          "name": "requiredVerifications",
          "type": "uint256"
        },
        {
          "internalType": "uint256",
          "name": "verificationInterval",
          "type": "uint256"
        },
        {
          "internalType": "bytes32[]",
          "name": "publicInputs",
          "type": "bytes32[]"
        },
        {
          "internalType": "bytes",
          "name": "proof",
          "type": "bytes"
        }
      ],
      "name": "updateVerificationConfig",
      "outputs": [],
      "stateMutability": "nonpayable",
      "type": "function"
    },
    {
      "inputs": [
        {
          "internalType": "bytes32",
          "name": "vaultId",
          "type": "bytes32"
        },
        {
          "internalType": "enum LegacyTypes.VerificationMethod",
          "name": "method",
          "type": "uint8"
        },
        {
          "internalType": "bytes32[]",
          "name": "publicInputs",
          "type": "bytes32[]"
        },
        {
          "internalType": "bytes",
          "name": "proof",
          "type": "bytes"
        }
      ],
      "name": "verifyIdentity",
      "outputs": [],
      "stateMutability": "nonpayable",
      "type": "function"
    },
    {
      "inputs": [
        {
          "internalType": "bytes32",
          "name": "assetId",
          "type": "bytes32"
        },
        {
          "internalType": "bytes32[]",
          "name": "publicInputs",
          "type": "bytes32[]"
        },
        {
          "internalType": "bytes",
          "name": "proof",
          "type": "bytes"
        }
      ],
      "name": "verifyPrivateAsset",
      "outputs": [
        {
          "internalType": "bool",
          "name": "",
          "type": "bool"
        }
      ],
      "stateMutability": "nonpayable",
      "type": "function"
    }
  ],
  "bytecode": "0x60803462000428576200578f906001600160401b0390601f90601f19388590038381018216830190858211848310176200032c5780849160409889948552833981010312620004285781516020928301516001600160a01b03811695919491908690036200042857620000716200042d565b9060068252654c656761637960d01b858301526200008e6200042d565b93600390818652624c474360e81b8787015283518381116200032c5782546001958682811c921680156200041d575b8a83101462000407578188849311620003b1575b5089908883116001146200034e5760009262000342575b505060001982851b1c191690851b1782555b85519283116200032c5760049586548581811c9116801562000321575b898210146200030c579081878695949311620002b2575b5088918785116001146200024a57506000936200023e575b505082841b92600019911b1c19161783555b62000163336200044d565b6006553315620001ff575060025490838201809211620001ea57506000917fddf252ad1be2c89b69c2b068fc378daa952ba7f163c4a11628f55a4df523b3ef9160025533835282815285832084815401905585519384523393a3620001c8336200044d565b601180546001600160a01b031916919091179055516152f89081620004978239f35b601190634e487b7160e01b6000525260246000fd5b60649286519262461bcd60e51b845283015260248201527f45524332303a206d696e7420746f20746865207a65726f2061646472657373006044820152fd5b01519150388062000146565b869593929193169288600052896000209360005b8b8282106200029b575050851162000280575b50505050811b01835562000158565b01519060f884600019921b161c191690553880808062000271565b83850151875589989096019593840193016200025e565b909192935087600052886000208780870160051c8201928b881062000302575b9188918897969594930160051c01915b828110620002f25750506200012e565b60008155879650889101620002e2565b92508192620002d2565b602288634e487b7160e01b6000525260246000fd5b90607f169062000117565b634e487b7160e01b600052604160045260246000fd5b015190503880620000e8565b908488941691866000528b6000209260005b8d8282106200039a575050841162000381575b505050811b018255620000fa565b015160001983871b60f8161c1916905538808062000373565b8385015186558b9790950194938401930162000360565b90915084600052896000208880850160051c8201928c8610620003fd575b918991869594930160051c01915b828110620003ed575050620000d1565b60008155859450899101620003dd565b92508192620003cf565b634e487b7160e01b600052602260045260246000fd5b91607f1691620000bd565b600080fd5b60408051919082016001600160401b038111838210176200032c57604052565b600580546001600160a01b039283166001600160a01b0319821681179092559091167f8be0079c531659141344cd1fd0a4f28419497f9722a3daafe3b4186f6b6457e0600080a356fe608080604052600436101561001357600080fd5b60003560e01c90816306fdde031461431357508063095ea7b3146142ed5780630a41ef8f146141405780630d3b39a314613f095780630db7d68e14613a4a5780630ec48e1d146138e05780630ee4db94146137e457806318160ddd146137c657806321da4d7b1461371557806323b872dd14613535578063313ce567146135195780633522ad96146133e457806339509351146133935780633bb6e0181461329957806345b5b9ab146131dd5780634c29082214612f875780635ec1388414612e305780635f61c13714612c195780636cf02a7014612a4157806370a0823114612a07578063715018a6146129aa57806375edb37d146128805780637aff3237146127cf5780637cdad3f4146127b05780638c658839146126ff5780638da5cb5b146126d657806395d89b41146125f0578063990fecb3146123b15780639e6696a91461223f5780639fd83a6814611fd8578063a457c2d714611f26578063a9059cbb14611e8a578063aa348dab14611947578063c4e9cbb5146111ca578063d3d3739614611119578063d8c79a9914610ead578063dc4d092414610e87578063dd62ed3e14610e36578063e65d408414610e18578063e8022d2114610def578063e917dd2614610cfe578063ec2e08cc146107fd578063f2fde38b14610739578063f4570e3214610595578063f4ad12951461044a5763fe7c9c921461021957600080fd5b3461044557602080600319360112610445576001600160a01b03908161023d6143f6565b1660005260078152604060002080549261025684614aae565b936102646040519586614750565b8085528385018093600052846000206000915b8383106103be57505050506040519383859485019181865251809252604085019260408360051b87010194936000915b8483106102b45787870388f35b9193959092949650603f1988820301835284875191825181528183015182820152836040840151166040820152606090848285015116828201528460808086015115158184015260a0908187015115158285015260c09485880151916101009182888801526101c0870192845115159088015261033989850151610120890190614592565b6040840151610140880152830151610160870152820151956101808601528551809152866101e086019601906000905b8082106103a1575050509160e060019781938897969501516101a08601520151169101529801930193019092879695939492946102a7565b825190951687528c97968701968a95920191600190910190610369565b600a8760019260409a9899979a516103d581614734565b8554815284860154838201528b600287015416604082015260038601548c8116606083015260ff60a0918181841c161515608085015260a81c161515908201526104216004870161507a565b60c08201528b60098701541660e08201528152019201920191909693959496610277565b600080fd5b34610445576080366003190112610445576004356024356005811015610445576001600160401b03906044358281116104455761048b903690600401614479565b606493919335918211610445576104a860209236906004016144a9565b601154604051630fc6382d60e21b81529687946001600160a01b0390921693859360009385936104de9391908d60048701614c12565b03925af19081156105895761051f6040927fa82915ec5a36e158ff7d4871ff3e1ec602ef494ae020f2d9be0a0ed26bf473829460009161055b575b50614c55565b8360005260086020528160002061053f60ff600483015460a81c16614de2565b6006429101556105588251913383526020830190614592565ba2005b61057c915060203d8111610582575b6105748183614750565b810190614bd6565b86610519565b503d61056a565b6040513d6000823e3d90fd5b346104455760206105a536614538565b601154604051630fc6382d60e21b815295969486946001600160a01b0390921693859360009385936105dd9391908c60048701614c12565b03925af18015610589576105f89160009161071a5750614c55565b806000526008602052604060002060048101805461061b60ff8260a81c16614de2565b600a83018054936001600160a01b0385169290919083156106e25761064b60068401936007855491015490614771565b421061069d577f0a00d75ac5a3cba45677fd6c0289a63f481c086067a902954a7fca17722d6c5f95604095856001600160601b0360a01b809416179055169055429055815190815260006020820152a2005b60405162461bcd60e51b815260206004820152601f60248201527f566572696669636174696f6e20706572696f64206e6f742065787069726564006044820152606490fd5b60405162461bcd60e51b815260206004820152601060248201526f139bc81cdd58d8d95cdcdbdc881cd95d60821b6044820152606490fd5b610733915060203d602011610582576105748183614750565b83610519565b34610445576020366003190112610445576107526143f6565b61075a61459f565b6001600160a01b039081169081156107a957600554826001600160601b0360a01b821617600555167f8be0079c531659141344cd1fd0a4f28419497f9722a3daafe3b4186f6b6457e0600080a3005b60405162461bcd60e51b815260206004820152602660248201527f4f776e61626c653a206e6577206f776e657220697320746865207a65726f206160448201526564647265737360d01b6064820152608490fd5b34610445576080366003190112610445576004356001600160401b0381116104455761082d903690600401614479565b906044356001600160401b0381116104455761084d903690600401614479565b6064939193356001600160401b0381116104455761086f9036906004016144a9565b8060208360018060a09796971b03601154168560008b6108a860405197889687958694630fc6382d60e21b865260243560048701614c12565b03925af18015610589576108c391600091610cdf5750614c55565b6000958415610cc9578535600052600860205260406000209260005b868110610c755750600184015494600485015493600160a01b60019003600a87015416966040519a6109108c6146e2565b8b5260208b0152369061092292614c91565b6040890152369061093292614cd7565b60608701526001600160a01b038116608087015260ff60a082811c821615159088015260a89190911c16151560c086015261096f9060050161507a565b60e08501526101008401526024356000526008602052604060002092805184556020810151600185015560408101518051906001600160401b038211610bb85781906109cb826109c260028a01546145f7565b60028a01614d25565b602090601f8311600114610c0357600092610bf8575b50508160011b916000199060031b1c19161760028501555b60608101518051906001600160401b038211610bb85760206003870191610a208484614d9f565b0190600052602060002060005b838110610be45750505050608081015160048501805460a08085015160ff60a01b90151590911b166001600160a01b039093166001600160a81b0319909116179190911781556001600160a01b031990610aa1905b60c0840151815460ff60a81b191690151560a81b60ff60a81b16179055565b600585019460e083015195610ac587511515829060ff801983541691151516179055565b60208701516005811015610bce57610adc91614b1b565b6040860151600682015560608601516007820155600881019560808101518051906001600160401b038211610bb857602090610b18838b614b51565b019760005260206000209760005b828110610b9b575050507f4efe8e94af917166586f807d833b4aa3c25c868a3dae262b0ca755c53fb68ffb96509060a0600a9201516009820155019161010060018060a01b039101511690825416179055610b8e604051928392604084526040840191614bee565b60243560208301520390a1005b81516001600160a01b0316818b0155602090910190600101610b26565b634e487b7160e01b600052604160045260246000fd5b634e487b7160e01b600052602160045260246000fd5b600190602084519401938184015501610a2d565b0151905086806109e1565b9250600287016000526020600020906000935b601f1984168510610c5a576001945083601f19811610610c41575b505050811b0160028501556109f9565b015160001960f88460031b161c19169055868080610c31565b81810151835560209485019460019093019290910190610c16565b97610c9d610cc491610c888b8a8c61506a565b35600052600860205260406000205490614771565b98610ca981898b61506a565b356000526008602052610cbf6040600020614fe8565b61505b565b6108df565b634e487b7160e01b600052603260045260246000fd5b610cf8915060203d602011610582576105748183614750565b88610519565b34610445576020610d0e36614538565b601154604051630fc6382d60e21b815295969486946001600160a01b039092169385936000938593610d469391908c60048701614c12565b03925af1801561058957610d6191600091610dd75750614c55565b806000526008602052600a6040600020600481018054610d8660ff8260a81c16614de2565b60ff60a81b1916905560058101805460ff191690554260068201550180546001600160a01b03191690557f3f22ce05b44f3fc3c094d2c0fa39414ecd3f78e6ccb8ba1e2efee174839feca1600080a2005b610733915060203d8111610582576105748183614750565b34610445576000366003190112610445576011546040516001600160a01b039091168152602090f35b3461044557600036600319011261044557602060405162278d008152f35b3461044557604036600319011261044557610e4f6143f6565b610e5761440c565b9060018060a01b038091166000526001602052604060002091166000526020526020604060002054604051908152f35b34610445576020610ea3610e9a36614538565b93929092614e8b565b6040519015158152f35b3461044557610ebb36614538565b9392610ec5614880565b8360005260209160098352610ede6040600020546145f7565b6110dd5780838560018060a01b03601154168560008a610f158d604051998a9788968795630fc6382d60e21b875260048701614c12565b03925af191821561058957610f4992610f35916000916110c05750614c55565b60405196610f42886146c7565b3691614c91565b8552610f56368483614cd7565b948281019586526040810142815285600052600984526040600020915180516001600160401b0391828211610bb8578190610f9b82610f9588546145f7565b88614d25565b8790601f831160011461105b57600092611050575b50508160011b916000199060031b1c19161783555b60019788840190518051928311610bb8578690610fe28484614d9f565b0190600052856000208960005b84811061103e5750845160028701556040518881528a907fa079d47139d59ed8fc3e87923cfb5b34b05911423fcf7e86b1558241a99bf4779080611036818d018e8d614bee565b0390a2600655005b88845194019381840155018a90610fef565b015190508a80610fb0565b60008781528981209350601f198516905b8a8282106110aa575050908460019594939210611091575b505050811b018355610fc5565b015160001960f88460031b161c191690558a8080611084565b600185968293968601518155019501930161106c565b6110d79150863d8811610582576105748183614750565b89610519565b60405162461bcd60e51b8152600481018490526014602482015273417373657420616c72656164792065786973747360601b6044820152606490fd5b3461044557602061112936614538565b601154604051630fc6382d60e21b815295969486946001600160a01b0390921693859360009385936111619391908c60048701614c12565b03925af180156105895761117c91600091610dd75750614c55565b806000526008602052604060002061119d60ff600483015460a81c16614de2565b6006429101557f274a359e555ab9343c9df58d79a6bd499d86eb2609967df558df838037afb8b0600080a2005b3461044557610160366003190112610445576111e4614438565b6111ec614583565b600560a4351015806104455760c4356001600160401b03811161044557611217903690600401614479565b93909261122261444e565b91610124356001600160401b03811161044557611243903690600401614479565b90610144356001600160401b038111610445576112649036906004016144a9565b92909161126f614880565b61127c60243515156148d6565b6112894260443511614913565b8561129e6001600160a01b0387161515614953565b6118f1575b3360005260006020526112bf6024356040600020541015614a5f565b60043560005260086020526040600020546118b557601154604051630fc6382d60e21b8152919060209083906001600160a01b03168160008161130b8b8b8b8a60048035908701614c12565b03925af1918215610589576113b49261132b916000916118965750614c55565b861561188e5742925b6040519361134185614719565b881515855261135560a43560208701614aa2565b60408501526276a700606085015261136e368d8d614ac5565b608085015260e43560a08501528715611883576113a889955b60405197611394896146e2565b602435895260443560208a01523691614c91565b60408701523691614cd7565b606084015260018060a01b0384166080840152600160a084015284151560c084015260e083015260018060a01b031661010082015260043560005260086020526040600020815181556020820151600182015560408201518051906001600160401b038211610bb85781906114398261143060028701546145f7565b60028701614d25565b602090601f831160011461181157600092611806575b50508160011b916000199060031b1c19161760028201555b60608201518051906001600160401b038211610bb8576020600384019161148e8484614d9f565b0190600052602060002060005b8381106117f25750505050608082015160048201805460a08086015160ff60a01b90151590911b166001600160a01b039093166001600160a81b0319909116179190911781556114ea90610a82565b60e082015161150b81511515600584019060ff801983541691151516179055565b60208101516005811015610bce576115269060058401614b1b565b604081015160068301556060810151600783015560808101518051906001600160401b038211610bb857602060088501916115618484614b51565b0190600052602060002060005b8381106117d557505050509060a0600a9201516009820155019061010060018060a01b03910151166001600160601b0360a01b82541617905533156117945730156117555733600052600060205260406000205460243581106117135733600052600060205260243590036040600020553060005260406000206024358154019055604051602435815230906000805160206152a383398151915260203392a36040805160443581526001600160a01b039092166020830152600435917f3ac055d846f611b9b57d770f92f512557bfa9780de87a9c60ed5978d7a538a789190a261165b575b6001600655005b6040516001600160a01b0390911681526004359060008051602061528383398151915290602090a26040516116928160a435614592565b7fa0bcc6e244e9ed39dd8e9ad8b6be61e7afe79b7f5d2abfc6c47394960fa416c8602060043592a2610bce57600460a435146116d0575b8080611654565b6117097fd912f7b9d227dd3c1e86ee1b2fb86f24a22a810eb41a4176bbad181faf858dd0916040519182916004359560e4359184614b87565b0390a280806116c9565b60405162461bcd60e51b81526020600482015260266024820152600080516020615223833981519152604482015265616c616e636560d01b6064820152608490fd5b60405162461bcd60e51b8152602060048201526023602482015260008051602061524383398151915260448201526265737360e81b6064820152608490fd5b60405162461bcd60e51b81526020600482015260256024820152600080516020615263833981519152604482015264647265737360d81b6064820152608490fd5b82516001600160a01b03168183015560209092019160010161156e565b60019060208451940193818401550161149b565b015190508a8061144f565b9250600284016000526020600020906000935b601f1984168510611868576001945083601f1981161061184f575b505050811b016002820155611467565b015160001960f88460031b161c191690558a808061183f565b81810151835560209485019460019093019290910190611824565b6113a8600095611387565b600092611334565b6118af915060203d602011610582576105748183614750565b8d610519565b60405162461bcd60e51b81526020600482015260146024820152735661756c7420616c72656164792065786973747360601b6044820152606490fd5b96506119076001600160a01b038716151561498f565b600096600460a435036112a35761191f8a15156149cf565b61193760e4358b811515918261193c575b5050614a13565b6112a3565b111590508b8d611930565b346104455761012036600319011261044557611961614422565b611969614438565b90611972614583565b91600560a435101590816104455760c4356001600160401b0381116104455761199f903690600401614479565b9490936119aa61444e565b926119b3614880565b6119c060043515156148d6565b6119cd4260243511614913565b6001600160a01b03821615611e4f57826119f16001600160a01b0383161515614953565b611dfa575b336000526000602052611a126004356040600020541015614a5f565b8215611df357425b60405190611a2782614719565b8415158252611a3b60a43560208401614aa2565b60408201526276a7006060820152611a54368989614ac5565b608082015260e43560a08201528315611dec57845b60405191611a7683614734565b6004358352602435602084015260018060a01b038516604084015260018060a01b03841660608401526001608084015285151560a084015260c083015260018060a01b031660e08201523360005260076020526040600020805490600160401b821015610bb85760018201808255821015610cc95760009081526020908190208351600a8402820190815591840151600183015560408401516002830180546001600160a01b0319166001600160a01b0392831617905560608501516003909301805460808701516001600160a81b0319909116949092169390931790151560a01b60ff60a01b161782559190611b869060a0850151815460ff60a81b191690151560a81b60ff60a81b16179055565b60c0830151611bac815115156004600a85028601019060ff801983541691151516179055565b60208101516005811015610bce57611bcc906004600a8502860101614b1b565b60408101516005600a84028501015560608101516006600a84028501015560808101518051906001600160401b038211610bb85760206007600a860287010191611c168484614b51565b0190600052602060002060005b838110611dcf57505050506009929160a0600a9201516008838302850101550201019060e060018060a01b03910151166001600160601b0360a01b82541617905533156117945730156117555733600052600060205260406000205460043581106117135733600052600060205260043590036040600020553060005260406000206004358154019055604051600435815230906000805160206152a383398151915260203392a360408051600435815260243560208201526001600160a01b03938416918101919091529116606082015233907f70163d65f5b22aa1231d4edb7889c2baed80c9fcf039a2158e9b447a3404c8b390608090a2611d28576001600655005b6040516001600160a01b039091168152339060008051602061528383398151915290602090a2604051611d5d8160a435614592565b7fa0bcc6e244e9ed39dd8e9ad8b6be61e7afe79b7f5d2abfc6c47394960fa416c860203392a2610bce57600460a43514611d98578080611654565b6117097fd912f7b9d227dd3c1e86ee1b2fb86f24a22a810eb41a4176bbad181faf858dd091604051918291339560e4359184614b87565b82516001600160a01b031681830155602090920191600101611c23565b6000611a69565b6000611a1a565b9350611e106001600160a01b038416151561498f565b600093600460a435036119f657611e288715156149cf565b611e3f60e435888115159182611e44575050614a13565b6119f6565b11159050888a611930565b60405162461bcd60e51b8152602060048201526013602482015272496e76616c69642062656e656669636961727960681b6044820152606490fd5b3461044557604036600319011261044557611ea36143f6565b60243590611eaf614880565b3315611794576001600160a01b031690811561175557336000526000602052604060002054818110611713578190336000526000602052036040600020558160005260406000208181540190556040519081526000805160206152a383398151915260203392a36001600655602060405160018152f35b3461044557604036600319011261044557611f3f6143f6565b60243590336000526001602052604060002060018060a01b03821660005260205260406000205491808310611f8557611f7a9203903361477e565b602060405160018152f35b60405162461bcd60e51b815260206004820152602560248201527f45524332303a2064656372656173656420616c6c6f77616e63652062656c6f77604482015264207a65726f60d81b6064820152608490fd5b3461044557611fe636614538565b611ff1939293614880565b33600052602093600d855261200e60ff6040600020541615614f1f565b33600052600c855260406000205491610e108301809311612229576120368693421015614f64565b866000526008835260406000209461205086541515614fa5565b60008861207f60018060a01b03601154169460405198899788968795630fc6382d60e21b875260048701614c12565b03925af180156105895761209a9160009161220c5750614c55565b5482600052600882526120b06040600020614fe8565b30156121cb57331561218c57306000526000825260406000205481811061214a579080600c939230600052600084520360406000205533600052604060002081815401905560405190815233906000805160206152a3833981519152833092a333600052524260406000205533907fbbc2c0ed1c8acf47e8f5677d6b908add9220ceb6cc25c38986cf9537ef5eb697600080a36001600655005b60405162461bcd60e51b81526004810184905260266024820152600080516020615223833981519152604482015265616c616e636560d01b6064820152608490fd5b60405162461bcd60e51b8152600481018390526023602482015260008051602061524383398151915260448201526265737360e81b6064820152608490fd5b60405162461bcd60e51b81526004810183905260256024820152600080516020615263833981519152604482015264647265737360d81b6064820152608490fd5b6122239150843d8611610582576105748183614750565b85610519565b634e487b7160e01b600052601160045260246000fd5b346104455760a03660031901126104455760043561225b614422565b6001600160401b036064358181116104455761227b903690600401614479565b916084359081116104455761229660209136906004016144a9565b6122a1949194614880565b6001600160a01b03958616936122b885151561498f565b6000886122e1896011541694604051998a9788968795630fc6382d60e21b875260048701614c12565b03925af180156105895760008051602061528383398151915293612311600a9260209560009161239a5750614c55565b856000526008845260406000209061232b82541515614fa5565b600482019061234e82549161234560ff8460a01c1661514d565b8216331461518f565b61235e60ff8260a81c16156151cc565b60ff60a81b1916600160a81b17905542600682015560243560078201550180546001600160a01b03191682179055604051908152a26001600655005b610cf89150863d8111610582576105748183614750565b34610445576123fb6123c236614538565b601154604051630fc6382d60e21b81526020979095889587956001600160a01b0390941694869460009486949093908c60048701614c12565b03925af1801561058957612416916000916125d35750614c55565b80600052600882526040600020916001835493612434851515614fa5565b0154421061259a5781600052600881526124516040600020614fe8565b301561255a57331561251c5730600052600081526040600020548381106124da5790837f8e4695449243087bc8b93a36113fd46a7f5bda9997cf40779da2735d9071085b9230600052600083520360406000205533600052604060002084815401905560405184815233906000805160206152a3833981519152833092a36040519384523393a3005b60405162461bcd60e51b81526004810183905260266024820152600080516020615223833981519152604482015265616c616e636560d01b6064820152608490fd5b6084906040519062461bcd60e51b825260048201526023602482015260008051602061524383398151915260448201526265737360e81b6064820152fd5b6084906040519062461bcd60e51b8252600482015260256024820152600080516020615263833981519152604482015264647265737360d81b6064820152fd5b6064906040519062461bcd60e51b82526004820152601260248201527115985d5b1d081b9bdd081d5b9b1bd8dad95960721b6044820152fd5b6125ea9150843d8611610582576105748183614750565b84610519565b34610445576000366003190112610445576040516000600454612612816145f7565b808452906001908181169081156126af5750600114612654575b6126508461263c81860382614750565b6040519182916020835260208301906143b6565b0390f35b6004600090815292507f8a35acfbc15ff81a39ae7d344fd709f28e8600b4aa8c65c6b64bfe7fe36bd19b5b82841061269757505050810160200161263c8261262c565b8054602085870181019190915290930192810161267f565b60ff191660208087019190915292151560051b8501909201925061263c915083905061262c565b34610445576000366003190112610445576005546040516001600160a01b039091168152602090f35b3461044557602061270f36614538565b601154604051630fc6382d60e21b815295969486946001600160a01b0390921693859360009385936127479391908c60048701614c12565b03925af180156105895761276291600091610dd75750614c55565b806000526008602052604060002061278360ff600483015460a81c16614de2565b6006429101557f804adf61a77ad2a068313417ec09f6b18e60afae04c4513d0f3a4de43fd7294a600080a2005b346104455760003660031901126104455760206040516312cc03008152f35b346104455760206127df36614538565b601154604051630fc6382d60e21b815295969486946001600160a01b0390921693859360009385936128179391908c60048701614c12565b03925af180156105895761283291600091610dd75750614c55565b806000526008602052604060002061285360ff600483015460a81c16614de2565b6006429101557f68e408aec6af3164ad88d03e575f6c72189b54702098fe34d9aca90cbc0080e2600080a2005b346104455761288e36614538565b92612897614880565b84600052602092600984526128b06040600020546145f7565b1561296e5790839291600060018060a01b0360115416926128e860405198899687958694630fc6382d60e21b86528d60048701614c12565b03925af191821561058957600992612907916000916129575750614c55565b8260005252600060026040822061291d81614e42565b61292960018201614d6a565b01557f120a09ef30eb858d24a525ab8ffb9b9eec2098da49974e2f5c57da3e7dfb8657600080a26001600655005b6122239150833d8511610582576105748183614750565b60405162461bcd60e51b8152600481018590526014602482015273105cdcd95d08191bd95cc81b9bdd08195e1a5cdd60621b6044820152606490fd5b34610445576000366003190112610445576129c361459f565b600580546001600160a01b031981169091556000906001600160a01b03167f8be0079c531659141344cd1fd0a4f28419497f9722a3daafe3b4186f6b6457e08280a3005b34610445576020366003190112610445576001600160a01b03612a286143f6565b1660005260006020526020604060002054604051908152f35b346104455760e03660031901126104455760043560056024351015610445576001600160401b039060443582811161044557612a81903690600401614479565b9060a43584811161044557612a9a903690600401614479565b60c4359086821161044557612ab560209236906004016144a9565b601154604051630fc6382d60e21b81529586946001600160a01b039092169385936000938593612aeb9391908e60048701614c12565b03925af1801561058957612b0691600091612c005750614c55565b8260005260086020526040600020612b2760ff600483015460a81c16614de2565b612b3660243560058301614b1b565b60088101948311610bb857612b4b8386614b51565b819460005260206000209460005b848110612be557857fd912f7b9d227dd3c1e86ee1b2fb86f24a22a810eb41a4176bbad181faf858dd08686612be087606435908160098201556084356007820155600642910155857fa0bcc6e244e9ed39dd8e9ad8b6be61e7afe79b7f5d2abfc6c47394960fa416c86020604051612bd381602435614592565ba260405193849384614b87565b0390a2005b6001906020612bf384614e2e565b9301928189015501612b59565b61057c915060203d602011610582576105748183614750565b3461044557600319608036820112610445576001600160401b039060043582811161044557612c4c903690600401614479565b60249391933582811161044557612c67903690600401614479565b93909260443581811161044557612c82903690600401614479565b92909160643590811161044557612c9d9036906004016144a9565b939092612ca861459f565b878603612dfb578491612cf091600060018060a01b039687601154169360405197889687958693630fc6382d60e21b8552866004860152606060248601526064850191614bee565b9082820301604483015287815260209a8b988994858401378181018401859052601f01601f1916010301925af1801561058957612d3491600091612de45750614c55565b60005b838110612d4057005b80612d8f8884612d71612d6c858a612d66612d618f9a8f9b612ddf9c61506a565b615140565b9561506a565b614e2e565b16600052600d865260406000209060ff801983541691151516179055565b612d9d612d6c82878b61506a565b7f6a12b3df6cba4203bd7fd06b816789f87de8c594299aed5717ae070fac781bac8585612dce612d61868d8d61506a565b9360405194151585521692a261505b565b612d37565b610cf89150843d8611610582576105748183614750565b60405162461bcd60e51b815260206004820152600d60248201526c125b9d985b1a59081a5b9c1d5d609a1b6044820152606490fd5b3461044557612e90612e41366144d6565b859694959192612e4f614880565b6001600160a01b0396871693612e66851515614953565b600088601154169260405198899586948593630fc6382d60e21b855260209b8c9a60048701614c12565b03925af18015610589577f2b01b717e981cd190a22f87df43ac223131dad5b0935e646ad0789b6db4edd8694612ed3612f76926040966000916110c05750614c55565b8660005260088452612f01600486600020612ef081541515614fa5565b015461234560ff8260a01c1661514d565b6003855191612f0f836146fe565b338352858301858152878401904282526060850192600084528b600052600e8952808a600020965116906001600160601b0360a01b9182885416178755600187019251169082541617905551600284015551151591019060ff801983541691151516179055565b825191338352820152a26001600655005b346104455760a036600319011261044557612fa06143f6565b602435606435916001600160401b039283811161044557612fc5903690600401614479565b909360843590811161044557612fdf9036906004016144a9565b91612fe8614880565b33600052602092600d845261300560ff6040600020541615614f1f565b6001600160a01b039485169687156131a65733600052600a85526005604060002054101561316d57601154604051630fc6382d60e21b81529486948694928916938593600093859361305b938f60048701614c12565b03925af1801561058957613076916000916131565750614c55565b33600052600a815260406000209160405192613091846146fe565b85845282840193858552604081019160443583526060820190600182528054600160401b811015610bb8576130cb91600182018155615124565b939093613140577fa1af4d5674d6941f431c5eff3fa572728ca258959a4a302ec634db6bfe4cec90966131309560039451166001600160601b0360a01b86541617855551600185015551600284015551151591019060ff801983541691151516179055565b6040519283523392a36001600655005b634e487b7160e01b600052600060045260246000fd5b61057c9150833d8511610582576105748183614750565b60405162461bcd60e51b8152600481018690526011602482015270546f6f206d616e7920636f6e746163747360781b6044820152606490fd5b60405162461bcd60e51b815260048101869052600f60248201526e125b9d985b1a590818dbdb9d1858dd608a1b6044820152606490fd5b346104455760206131ed36614538565b601154604051630fc6382d60e21b815295969486946001600160a01b0390921693859360009385936132259391908c60048701614c12565b03925af180156105895761324091600091610dd75750614c55565b806000526008602052604060002061326160ff600483015460a81c16614de2565b6006429101557fa82915ec5a36e158ff7d4871ff3e1ec602ef494ae020f2d9be0a0ed26bf473826040805133815260006020820152a2005b346104455760206132a9366144d6565b601154604051630fc6382d60e21b815296976001600160a01b0396959094889492881693859360009385936132e49392918e60048701614c12565b03925af1918215610589576133246020937f1cb3fee6c7dc017b42ebf936a14a501311e50c2bcf62ee10f05a362195b44c04956000916133765750614c55565b846000526008835260406000209161334560ff600485015460a81c16614de2565b169061335282151561498f565b600a810180546001600160a01b0319168317905542600690910155604051908152a2005b61338d9150853d8111610582576105748183614750565b87610519565b3461044557604036600319011261044557611f7a6133af6143f6565b336000526001602052604060002060018060a01b0382166000526020526133dd602435604060002054614771565b903361477e565b346104455760003660031901126104455760105461340181614aae565b9061340f6040519283614750565b808252602090818301908160106000527f1b6847dc741a1b0cd08d278845f9d819d87b734759afb55fe2de5cb82a9ae6726000915b8383106134c75750505050604051918083019381845251809452604083019360408160051b85010192916000955b82871061347f5785850386f35b909192938280600192603f198982030185528751906040806134a9845160608086528501906143b6565b93858101518685015201519101529601920196019592919092613472565b6003866001926040999899516134dc816146c7565b6040516134f4816134ed818a614631565b0382614750565b8152848601548382015260028601546040820152815201920192019190959495613444565b3461044557600036600319011261044557602060405160128152f35b346104455760603660031901126104455761354e6143f6565b61355661440c565b6044359060018060a01b03808416918260005260209460018652604060002033600052865260406000205460001981036136b3575b5050821561367257169182156136335781600052600084526040600020548181106135f157816000805160206152a3833981519152928692856000526000845203604060002055846000526040600020818154019055604051908152a360405160018152f35b60405162461bcd60e51b81526004810186905260266024820152600080516020615223833981519152604482015265616c616e636560d01b6064820152608490fd5b60405162461bcd60e51b8152600481018590526023602482015260008051602061524383398151915260448201526265737360e81b6064820152608490fd5b60405162461bcd60e51b81526004810186905260256024820152600080516020615263833981519152604482015264647265737360d81b6064820152608490fd5b8581106136d05790856136c9920390339061477e565b858061358b565b60405162461bcd60e51b815260048101889052601d60248201527f45524332303a20696e73756666696369656e7420616c6c6f77616e63650000006044820152606490fd5b3461044557602061372536614538565b601154604051630fc6382d60e21b815295969486946001600160a01b03909216938593600093859361375d9391908c60048701614c12565b03925af180156105895761377891600091610dd75750614c55565b806000526008602052604060002061379960ff600483015460a81c16614de2565b6006429101557f270ad9e89bbc29e76e4d8da6b729a99f732417cde57597bc50f12b2a0e1d20d5600080a2005b34610445576000366003190112610445576020600254604051908152f35b346104455760206137f4366144d6565b94956001600160a01b0394851694909391929060009061381587151561498f565b601154169261383b60405198899687958694630fc6382d60e21b86528d60048701614c12565b03925af190811561058957613869602092600080516020615283833981519152946000916138c95750614c55565b8360005260088252600a604060002061388481541515614fa5565b60048101805461389a60ff8260a81c16156151cc565b60ff60a81b1916600160a81b1790554260068201550180546001600160a01b03191682179055604051908152a2005b61057c9150843d8111610582576105748183614750565b34610445576060366003190112610445576138f96143f6565b6001600160401b03906024358281116104455761391a903690600401614479565b9190926044359081116104455761393760209136906004016144a9565b92613940614880565b33600052600d835261395a60ff6040600020541615614f1f565b60018060a01b0394600086806011541693169761398e60405197889687958694630fc6382d60e21b86528d60048701614c12565b03925af18015610589576139a991600091613a325750614c55565b33600052600a602052604060002060005b8154811015613a295783836139cf8385615124565b505416146139e5576139e09061505b565b6139ba565b600392506139f291615124565b5001805460ff19169055337f381ceeb666db3e3c307a575ad34d05f5b497665803dd1983e06e72dd7b4120e4600080a36001600655005b50505050611654565b6125ea915060203d8111610582576105748183614750565b346104455760a0366003190112610445576024356001600160401b03811161044557613a7a903690600401614479565b906044356001600160401b03811161044557613a9a903690600401614479565b9290916064356001600160401b03811161044557613abc903690600401614479565b608435906001600160401b03821161044557613ade60209236906004016144a9565b601154604051630fc6382d60e21b81529586946001600160a01b039092169385936000938593613b1693919060048035908701614c12565b03925af1801561058957613b3191600091612c005750614c55565b600435600052600860205260406000209160005b858110613ba257857f3d682b95597e183d0b6eef2bedcbaed3a4bd2c7ef82d295081bc9ce50c9cb923612be0876004356000526008602052613b8a6040600020614fe8565b60405191829160208352600435956020840191614bee565b613bad81838561506a565b356001850154600486015460018060a01b03600a880154169160405193613bd3856146e2565b84526020840152604051613bee816134ed8160028c01614631565b604084015260405180602060038a015491828152019060038a016000526020600020906000905b808210613ef15750505090613c2f8160ff94930382614750565b60608501526001600160a01b038116608085015260a081811c831615159085015260a81c16151560c0830152613c676005870161507a565b60e0830152610100820152613c7d82888861506a565b3560005260086020526040600020815181556020820151600182015560408201518051906001600160401b038211610bb8578190613cc28261143060028701546145f7565b602090601f8311600114613e7f57600092613e74575b50508160011b916000199060031b1c19161760028201555b60608201518051906001600160401b038211610bb85760206003840191613d178484614d9f565b0190600052602060002060005b838110613e605750505050608082015160048201805460a08086015160ff60a01b90151590911b166001600160a01b039093166001600160a81b031990911617919091178155613d7390610a82565b60e0820151613d9481511515600584019060ff801983541691151516179055565b60208101516005811015610bce57613daf9060058401614b1b565b6040810151600683015560608101516007830155608081015180516001600160401b038111610bb85760206008850192613de98385614b51565b019160005260206000209160005b828110613e43575050505060a00151600982015561010090910151600a90910180546001600160a01b0319166001600160a01b0392909216919091179055613e3e9061505b565b613b45565b81516001600160a01b031681850155602090910190600101613df7565b600190602084519401938184015501613d24565b015190508a80613cd8565b9250600284016000526020600020906000935b601f1984168510613ed6576001945083601f19811610613ebd575b505050811b016002820155613cf0565b015160001960f88460031b161c191690558a8080613ead565b81810151835560209485019460019093019290910190613e92565b90919260016020819286548152019401920190613c15565b34610445576060366003190112610445576001600160401b0360043581811161044557613f3a9036906004016144a9565b9160243590613f536044359360405195610f42876146c7565b8452602090818501838152604086019085825260105496600160401b881015610bb85760019788810180601055811015610cc95760039060106000520293847f1b6847dc741a1b0cd08d278845f9d819d87b734759afb55fe2de5cb82a9ae6720191518051918211610bb857613fd382613fcd85546145f7565b85614d25565b8690601f831160011461409157928260609a9896937f2632771b010faabfa73e8e1e005adfe38a70376cf9a58bb8de2c96d50eb317269c9a9896937f1b6847dc741a1b0cd08d278845f9d819d87b734759afb55fe2de5cb82a9ae67496600092614086575b5050600019600383901b1c1916908a1b1790555b517f1b6847dc741a1b0cd08d278845f9d819d87b734759afb55fe2de5cb82a9ae673840155519101556040519384528301526040820152a1005b015190508d80614038565b90601f1983169184600052886000209260005b81811061412b5750938c9a9896937f1b6847dc741a1b0cd08d278845f9d819d87b734759afb55fe2de5cb82a9ae67496937f2632771b010faabfa73e8e1e005adfe38a70376cf9a58bb8de2c96d50eb317269e938360609f9d9b9810614112575b505050811b01905561404c565b015160001960f88460031b161c191690558d8080614105565b828401518555938d0193928a01928a016140a4565b34610445576080366003190112610445576004356024356001600160401b0360443581811161044557614177903690600401614479565b929091606435908111610445576141929036906004016144a9565b92909361419d614880565b33600052602093600d85526141ba60ff6040600020541615614f1f565b33600052600c8552604060002054610e108101809111612229576141e090421015614f64565b8660005260088552600160406000206141fb81541515614fa5565b019283548511156142b057601154604051630fc6382d60e21b815297879489946001600160a01b03909316938593600093859361423c938f60048701614c12565b03925af19081156105895761427b83927f7d22eb60022eead32e969c848970cc52ba924cd7591c97fb3a82b388af139452966000916142995750614c55565b5533600052600c825242604060002055604051908152a26001600655005b610cf89150863d8811610582576105748183614750565b60405162461bcd60e51b81526004810187905260156024820152740496e76616c6964206e65772074696d657374616d7605c1b6044820152606490fd5b3461044557604036600319011261044557611f7a6143096143f6565b602435903361477e565b34610445576000366003190112610445576000600354614332816145f7565b808452906001908181169081156126af575060011461435b576126508461263c81860382614750565b6003600090815292507fc2575a0e9e593c00f959f8c92f12db2869c3395a3b0502d05e2516446f71f85b5b82841061439e57505050810160200161263c8261262c565b80546020858701810191909152909301928101614386565b919082519283825260005b8481106143e2575050826000602080949584010152601f8019910116010190565b6020818301810151848301820152016143c1565b600435906001600160a01b038216820361044557565b602435906001600160a01b038216820361044557565b604435906001600160a01b038216820361044557565b606435906001600160a01b038216820361044557565b61010435906001600160a01b038216820361044557565b35906001600160a01b038216820361044557565b9181601f84011215610445578235916001600160401b038311610445576020808501948460051b01011161044557565b9181601f84011215610445578235916001600160401b038311610445576020838186019501011161044557565b608060031982011261044557600435916024356001600160a01b038116810361044557916001600160401b0391604435838111610445578261451a91600401614479565b9390939260643591821161044557614534916004016144a9565b9091565b90606060031983011261044557600435916001600160401b0391602435838111610445578261456991600401614479565b9390939260443591821161044557614534916004016144a9565b60843590811515820361044557565b906005821015610bce5752565b6005546001600160a01b031633036145b357565b606460405162461bcd60e51b815260206004820152602060248201527f4f776e61626c653a2063616c6c6572206973206e6f7420746865206f776e65726044820152fd5b90600182811c92168015614627575b602083101461461157565b634e487b7160e01b600052602260045260246000fd5b91607f1691614606565b9060009291805491614642836145f7565b9182825260019384811690816000146146a45750600114614664575b50505050565b90919394506000526020928360002092846000945b83861061469057505050500101903880808061465e565b805485870183015294019385908201614679565b9294505050602093945060ff191683830152151560051b0101903880808061465e565b606081019081106001600160401b03821117610bb857604052565b61012081019081106001600160401b03821117610bb857604052565b608081019081106001600160401b03821117610bb857604052565b60c081019081106001600160401b03821117610bb857604052565b61010081019081106001600160401b03821117610bb857604052565b90601f801991011681019081106001600160401b03821117610bb857604052565b9190820180921161222957565b6001600160a01b0390811691821561482f57169182156147df5760207f8c5be1e5ebec7d5bd14f71427d1e84f3dd0314c0f7b2291e5b200ac8c7c3b925918360005260018252604060002085600052825280604060002055604051908152a3565b60405162461bcd60e51b815260206004820152602260248201527f45524332303a20617070726f766520746f20746865207a65726f206164647265604482015261737360f01b6064820152608490fd5b60405162461bcd60e51b8152602060048201526024808201527f45524332303a20617070726f76652066726f6d20746865207a65726f206164646044820152637265737360e01b6064820152608490fd5b600260065414614891576002600655565b60405162461bcd60e51b815260206004820152601f60248201527f5265656e7472616e637947756172643a207265656e7472616e742063616c6c006044820152606490fd5b156148dd57565b60405162461bcd60e51b815260206004820152600e60248201526d125b9d985b1a5908185b5bdd5b9d60921b6044820152606490fd5b1561491a57565b60405162461bcd60e51b81526020600482015260116024820152700496e76616c69642074696d657374616d7607c1b6044820152606490fd5b1561495a57565b60405162461bcd60e51b815260206004820152600d60248201526c24b73b30b634b21030b236b4b760991b6044820152606490fd5b1561499657565b60405162461bcd60e51b815260206004820152601160248201527024b73b30b634b21039bab1b1b2b9b9b7b960791b6044820152606490fd5b156149d657565b60405162461bcd60e51b8152602060048201526015602482015274139bc81d995c9a599a595c9cc81c1c9bdd9a591959605a1b6044820152606490fd5b15614a1a57565b60405162461bcd60e51b815260206004820152601e60248201527f496e76616c696420726571756972656420766572696669636174696f6e7300006044820152606490fd5b15614a6657565b60405162461bcd60e51b8152602060048201526014602482015273496e73756666696369656e742062616c616e636560601b6044820152606490fd5b6005821015610bce5752565b6001600160401b038111610bb85760051b60200190565b9291614ad082614aae565b91614ade6040519384614750565b829481845260208094019160051b810192831161044557905b828210614b045750505050565b838091614b1084614465565b815201910190614af7565b906005811015610bce5761ff0082549160081b169061ff001916179055565b818110614b45575050565b60008155600101614b3a565b90600160401b8111610bb857815490808355818110614b6f57505050565b614b859260005260206000209182019101614b3a565b565b60408082528101839052939291606085019060005b818110614bae57505060209150930152565b90916001906001600160a01b03614bc486614465565b16815260209485019401929101614b9c565b90816020910312610445575180151581036104455790565b81835290916001600160fb1b0383116104455760209260051b809284830137010190565b939085939260209693614c319287526060888801526060870191614bee565b936040818603910152818452848401376000828201840152601f01601f1916010190565b15614c5c57565b60405162461bcd60e51b815260206004820152600d60248201526c24b73b30b634b210383937b7b360991b6044820152606490fd5b9291926001600160401b038211610bb85760405191614cba601f8201601f191660200184614750565b829481845281830111610445578281602093846000960137010152565b9291614ce282614aae565b91614cf06040519384614750565b829481845260208094019160051b810192831161044557905b828210614d165750505050565b81358152908301908301614d09565b9190601f8111614d3457505050565b614b85926000526020600020906020601f840160051c83019310614d60575b601f0160051c0190614b3a565b9091508190614d53565b80549060009081815582614d7d57505050565b815260208120918201915b828110614d9457505050565b818155600101614d88565b600160401b8211610bb857805491808255828110614dbc57505050565b60009182526020822092830192015b828110614dd757505050565b818155600101614dcb565b15614de957565b60405162461bcd60e51b815260206004820152601d60248201527f44656164206d616e277320737769746368206e6f7420656e61626c65640000006044820152606490fd5b356001600160a01b03811681036104455790565b614e4c81546145f7565b9081614e56575050565b81601f60009311600114614e68575055565b908083918252614e87601f60208420940160051c840160018501614b3a565b5555565b919093600094838652600960205285614ea760408220546145f7565b15614f1657602094614edb60018060a01b03601154169460405198899788968795630fc6382d60e21b875260048701614c12565b03925af1918215614f0a5791614eef575090565b614f07915060203d8111610582576105748183614750565b90565b604051903d90823e3d90fd5b50505050505090565b15614f2657565b60405162461bcd60e51b81526020600482015260166024820152751059191c995cdcc81a5cc8189b1858dadb1a5cdd195960521b6044820152606490fd5b15614f6b57565b60405162461bcd60e51b815260206004820152601260248201527127b832b930ba34b7b71031b7b7b63237bbb760711b6044820152606490fd5b15614fac57565b60405162461bcd60e51b815260206004820152601460248201527315985d5b1d08191bd95cc81b9bdd08195e1a5cdd60621b6044820152606490fd5b600a60009182815582600182015561500260028201614e42565b61500e60038201614d6a565b82600482015582600582015582600682015582600782015560088101805484825580615041575b50508260098201550155565b6150549185526020852090810190614b3a565b3880615035565b60001981146122295760010190565b9190811015610cc95760051b0190565b9060405161508781614719565b8092805460ff8116151583526150a760ff60209260081c16828501614aa2565b600190818301546040850152600283015460608501526003830190604051928382845491828152019360005282600020926000905b82821061510657505050505091816150fa60049360a0950382614750565b60808501520154910152565b84546001600160a01b031686529485019493830193908301906150dc565b8054821015610cc95760005260206000209060021b0190600090565b3580151581036104455790565b1561515457565b60405162461bcd60e51b815260206004820152601360248201527241646d696e206973206e6f742061637469766560681b6044820152606490fd5b1561519657565b60405162461bcd60e51b815260206004820152600e60248201526d139bdd08185d5d1a1bdc9a5e995960921b6044820152606490fd5b156151d357565b60405162461bcd60e51b815260206004820152602160248201527f44656164206d616e27732073776974636820616c726561647920656e61626c656044820152601960fa1b6064820152608490fdfe45524332303a207472616e7366657220616d6f756e742065786365656473206245524332303a207472616e7366657220746f20746865207a65726f206164647245524332303a207472616e736665722066726f6d20746865207a65726f206164af7d3e58cbbb3f9a7199b77d0fedb415961ed125ad8936ee67396050f465ed0addf252ad1be2c89b69c2b068fc378daa952ba7f163c4a11628f55a4df523b3efa26469706673582212200b424e3c362fb3c20ef82a8641357141303b78d9fbb21e4806f4e149b7f7c1c164736f6c63430008140033",
  "linkReferences": {},
  "deployedLinkReferences": {}
}